{
  "abi": [
    {
      "inputs": [],
      "name": "ALEADY_MINTED",
      "type": "error"
    },
    {
      "inputs": [],
      "name": "APPROVAL_TO_CURRENT_OWNER",
      "type": "error"
    },
    {
      "inputs": [],
      "name": "APPROVE_TO_CALLER",
      "type": "error"
    },
    {
      "inputs": [],
      "name": "BLOCK_NOT_YET_MINED",
      "type": "error"
    },
    {
      "inputs": [],
      "name": "CALLER_NOT_OWNER_OR_APPROVED",
      "type": "error"
    },
    {
      "inputs": [],
      "name": "INCORRECT_OWNER",
      "type": "error"
    },
    {
      "inputs": [],
      "name": "INVALID",
      "type": "error"
    },
    {
      "inputs": [],
      "name": "INVALID_PAYMENT_EVENT",
      "type": "error"
    },
    {
      "inputs": [],
      "name": "INVALID_REDEMPTION_EVENT",
      "type": "error"
    },
    {
      "inputs": [],
      "name": "INVALID_REDEMPTION_METADATA",
      "type": "error"
    },
    {
      "inputs": [],
      "name": "INVALID_TOKEN_ID",
      "type": "error"
    },
    {
      "inputs": [],
      "name": "MINT_TO_ZERO",
      "type": "error"
    },
    {
      "inputs": [],
      "name": "NOT_AVAILABLE",
      "type": "error"
    },
    {
      "inputs": [],
      "name": "OVERSPENDING",
      "type": "error"
    },
    {
      "inputs": [
        {
          "internalType": "uint256",
          "name": "prod1",
          "type": "uint256"
        },
        {
          "internalType": "uint256",
          "name": "denominator",
          "type": "uint256"
        }
      ],
      "name": "PRBMath__MulDivOverflow",
      "type": "error"
    },
    {
      "inputs": [],
      "name": "PRICING_RESOLVER_CHANGES_PAUSED",
      "type": "error"
    },
    {
      "inputs": [],
      "name": "RESERVED_TOKEN_MINTING_PAUSED",
      "type": "error"
    },
    {
      "inputs": [],
      "name": "SIGNATURE_EXPIRED",
      "type": "error"
    },
    {
      "inputs": [],
      "name": "TRANSFERS_PAUSED",
      "type": "error"
    },
    {
      "inputs": [],
      "name": "TRANSFER_TO_NON_IMPLEMENTER",
      "type": "error"
    },
    {
      "inputs": [],
      "name": "TRANSFER_TO_ZERO_ADDRESS",
      "type": "error"
    },
    {
      "inputs": [],
      "name": "UNAUTHORIZED",
      "type": "error"
    },
    {
      "inputs": [],
      "name": "UNEXPECTED_TOKEN_REDEEMED",
      "type": "error"
    },
    {
      "anonymous": false,
      "inputs": [
        {
          "indexed": true,
          "internalType": "uint256",
          "name": "tierId",
          "type": "uint256"
        },
        {
          "components": [
            {
              "internalType": "uint80",
              "name": "contributionFloor",
              "type": "uint80"
            },
            {
              "internalType": "uint48",
              "name": "lockedUntil",
              "type": "uint48"
            },
            {
              "internalType": "uint40",
              "name": "initialQuantity",
              "type": "uint40"
            },
            {
              "internalType": "uint16",
              "name": "votingUnits",
              "type": "uint16"
            },
            {
              "internalType": "uint16",
              "name": "reservedRate",
              "type": "uint16"
            },
            {
              "internalType": "address",
              "name": "reservedTokenBeneficiary",
              "type": "address"
            },
            {
              "internalType": "bytes32",
              "name": "encodedIPFSUri",
              "type": "bytes32"
            },
            {
              "internalType": "bool",
              "name": "allowManualMint",
              "type": "bool"
            },
            {
              "internalType": "bool",
              "name": "shouldUseBeneficiaryAsDefault",
              "type": "bool"
            },
            {
              "internalType": "bool",
              "name": "transfersPausable",
              "type": "bool"
            }
          ],
          "indexed": false,
          "internalType": "struct JB721TierParams",
          "name": "data",
          "type": "tuple"
        },
        {
          "indexed": false,
          "internalType": "address",
          "name": "caller",
          "type": "address"
        }
      ],
      "name": "AddTier",
      "type": "event"
    },
    {
      "anonymous": false,
      "inputs": [
        {
          "indexed": true,
          "internalType": "address",
          "name": "owner",
          "type": "address"
        },
        {
          "indexed": true,
          "internalType": "address",
          "name": "approved",
          "type": "address"
        },
        {
          "indexed": true,
          "internalType": "uint256",
          "name": "tokenId",
          "type": "uint256"
        }
      ],
      "name": "Approval",
      "type": "event"
    },
    {
      "anonymous": false,
      "inputs": [
        {
          "indexed": true,
          "internalType": "address",
          "name": "owner",
          "type": "address"
        },
        {
          "indexed": true,
          "internalType": "address",
          "name": "operator",
          "type": "address"
        },
        {
          "indexed": false,
          "internalType": "bool",
          "name": "approved",
          "type": "bool"
        }
      ],
      "name": "ApprovalForAll",
      "type": "event"
    },
    {
      "anonymous": false,
      "inputs": [
        {
          "indexed": true,
          "internalType": "address",
          "name": "delegator",
          "type": "address"
        },
        {
          "indexed": true,
          "internalType": "address",
          "name": "fromDelegate",
          "type": "address"
        },
        {
          "indexed": true,
          "internalType": "address",
          "name": "toDelegate",
          "type": "address"
        }
      ],
      "name": "DelegateChanged",
      "type": "event"
    },
    {
      "anonymous": false,
      "inputs": [
        {
          "indexed": true,
          "internalType": "address",
          "name": "delegate",
          "type": "address"
        },
        {
          "indexed": false,
          "internalType": "uint256",
          "name": "previousBalance",
          "type": "uint256"
        },
        {
          "indexed": false,
          "internalType": "uint256",
          "name": "newBalance",
          "type": "uint256"
        }
      ],
      "name": "DelegateVotesChanged",
      "type": "event"
    },
    {
      "anonymous": false,
      "inputs": [
        {
          "indexed": true,
          "internalType": "uint256",
          "name": "tokenId",
          "type": "uint256"
        },
        {
          "indexed": true,
          "internalType": "uint256",
          "name": "tierId",
          "type": "uint256"
        },
        {
          "indexed": true,
          "internalType": "address",
          "name": "beneficiary",
          "type": "address"
        },
        {
          "indexed": false,
          "internalType": "uint256",
          "name": "totalAmountContributed",
          "type": "uint256"
        },
        {
          "indexed": false,
          "internalType": "address",
          "name": "caller",
          "type": "address"
        }
      ],
      "name": "Mint",
      "type": "event"
    },
    {
      "anonymous": false,
      "inputs": [
        {
          "indexed": true,
          "internalType": "uint256",
          "name": "tokenId",
          "type": "uint256"
        },
        {
          "indexed": true,
          "internalType": "uint256",
          "name": "tierId",
          "type": "uint256"
        },
        {
          "indexed": true,
          "internalType": "address",
          "name": "beneficiary",
          "type": "address"
        },
        {
          "indexed": false,
          "internalType": "address",
          "name": "caller",
          "type": "address"
        }
      ],
      "name": "MintReservedToken",
      "type": "event"
    },
    {
      "anonymous": false,
      "inputs": [
        {
          "indexed": true,
          "internalType": "address",
          "name": "previousOwner",
          "type": "address"
        },
        {
          "indexed": true,
          "internalType": "address",
          "name": "newOwner",
          "type": "address"
        }
      ],
      "name": "OwnershipTransferred",
      "type": "event"
    },
    {
      "anonymous": false,
      "inputs": [
        {
          "indexed": true,
          "internalType": "uint256",
          "name": "tierId",
          "type": "uint256"
        },
        {
          "indexed": false,
          "internalType": "address",
          "name": "caller",
          "type": "address"
        }
      ],
      "name": "RemoveTier",
      "type": "event"
    },
    {
      "anonymous": false,
      "inputs": [
        {
          "indexed": true,
          "internalType": "string",
          "name": "baseUri",
          "type": "string"
        },
        {
          "indexed": false,
          "internalType": "address",
          "name": "caller",
          "type": "address"
        }
      ],
      "name": "SetBaseUri",
      "type": "event"
    },
    {
      "anonymous": false,
      "inputs": [
        {
          "indexed": true,
          "internalType": "string",
          "name": "contractUri",
          "type": "string"
        },
        {
          "indexed": false,
          "internalType": "address",
          "name": "caller",
          "type": "address"
        }
      ],
      "name": "SetContractUri",
      "type": "event"
    },
    {
      "anonymous": false,
      "inputs": [
        {
          "indexed": true,
          "internalType": "address",
          "name": "beneficiary",
          "type": "address"
        },
        {
          "indexed": false,
          "internalType": "address",
          "name": "caller",
          "type": "address"
        }
      ],
      "name": "SetDefaultReservedTokenBeneficiary",
      "type": "event"
    },
    {
      "anonymous": false,
      "inputs": [
        {
          "indexed": true,
          "internalType": "contract IJBTokenUriResolver",
          "name": "newResolver",
          "type": "address"
        },
        {
          "indexed": false,
          "internalType": "address",
          "name": "caller",
          "type": "address"
        }
      ],
      "name": "SetTokenUriResolver",
      "type": "event"
    },
    {
      "anonymous": false,
      "inputs": [
        {
          "indexed": true,
          "internalType": "address",
          "name": "from",
          "type": "address"
        },
        {
          "indexed": true,
          "internalType": "address",
          "name": "to",
          "type": "address"
        },
        {
          "indexed": true,
          "internalType": "uint256",
          "name": "tokenId",
          "type": "uint256"
        }
      ],
      "name": "Transfer",
      "type": "event"
    },
    {
      "inputs": [
        {
          "components": [
            {
              "internalType": "uint80",
              "name": "contributionFloor",
              "type": "uint80"
            },
            {
              "internalType": "uint48",
              "name": "lockedUntil",
              "type": "uint48"
            },
            {
              "internalType": "uint40",
              "name": "initialQuantity",
              "type": "uint40"
            },
            {
              "internalType": "uint16",
              "name": "votingUnits",
              "type": "uint16"
            },
            {
              "internalType": "uint16",
              "name": "reservedRate",
              "type": "uint16"
            },
            {
              "internalType": "address",
              "name": "reservedTokenBeneficiary",
              "type": "address"
            },
            {
              "internalType": "bytes32",
              "name": "encodedIPFSUri",
              "type": "bytes32"
            },
            {
              "internalType": "bool",
              "name": "allowManualMint",
              "type": "bool"
            },
            {
              "internalType": "bool",
              "name": "shouldUseBeneficiaryAsDefault",
              "type": "bool"
            },
            {
              "internalType": "bool",
              "name": "transfersPausable",
              "type": "bool"
            }
          ],
          "internalType": "struct JB721TierParams[]",
          "name": "_tiersToAdd",
          "type": "tuple[]"
        },
        {
          "internalType": "uint256[]",
          "name": "_tierIdsToRemove",
          "type": "uint256[]"
        }
      ],
      "name": "adjustTiers",
      "outputs": [],
      "stateMutability": "nonpayable",
      "type": "function"
    },
    {
      "inputs": [
        {
          "internalType": "address",
          "name": "to",
          "type": "address"
        },
        {
          "internalType": "uint256",
          "name": "tokenId",
          "type": "uint256"
        }
      ],
      "name": "approve",
      "outputs": [],
      "stateMutability": "nonpayable",
      "type": "function"
    },
    {
      "inputs": [
        {
          "internalType": "address",
          "name": "_owner",
          "type": "address"
        }
      ],
      "name": "balanceOf",
      "outputs": [
        {
          "internalType": "uint256",
          "name": "balance",
          "type": "uint256"
        }
      ],
      "stateMutability": "view",
      "type": "function"
    },
    {
      "inputs": [],
      "name": "codeOrigin",
      "outputs": [
        {
          "internalType": "address",
          "name": "",
          "type": "address"
        }
      ],
      "stateMutability": "view",
      "type": "function"
    },
    {
      "inputs": [],
      "name": "contractURI",
      "outputs": [
        {
          "internalType": "string",
          "name": "",
          "type": "string"
        }
      ],
      "stateMutability": "view",
      "type": "function"
    },
    {
      "inputs": [
        {
          "internalType": "address",
          "name": "",
          "type": "address"
        }
      ],
      "name": "creditsOf",
      "outputs": [
        {
          "internalType": "uint256",
          "name": "",
          "type": "uint256"
        }
      ],
      "stateMutability": "view",
      "type": "function"
    },
    {
      "inputs": [
        {
          "internalType": "address",
          "name": "delegatee",
          "type": "address"
        }
      ],
      "name": "delegate",
      "outputs": [],
      "stateMutability": "nonpayable",
      "type": "function"
    },
    {
      "inputs": [
        {
          "internalType": "address",
          "name": "account",
          "type": "address"
        }
      ],
      "name": "delegates",
      "outputs": [
        {
          "internalType": "address",
          "name": "",
          "type": "address"
        }
      ],
      "stateMutability": "view",
      "type": "function"
    },
    {
      "inputs": [
        {
          "components": [
            {
              "internalType": "address",
              "name": "payer",
              "type": "address"
            },
            {
              "internalType": "uint256",
              "name": "projectId",
              "type": "uint256"
            },
            {
              "internalType": "uint256",
              "name": "currentFundingCycleConfiguration",
              "type": "uint256"
            },
            {
              "components": [
                {
                  "internalType": "address",
                  "name": "token",
                  "type": "address"
                },
                {
                  "internalType": "uint256",
                  "name": "value",
                  "type": "uint256"
                },
                {
                  "internalType": "uint256",
                  "name": "decimals",
                  "type": "uint256"
                },
                {
                  "internalType": "uint256",
                  "name": "currency",
                  "type": "uint256"
                }
              ],
              "internalType": "struct JBTokenAmount",
              "name": "amount",
              "type": "tuple"
            },
            {
              "components": [
                {
                  "internalType": "address",
                  "name": "token",
                  "type": "address"
                },
                {
                  "internalType": "uint256",
                  "name": "value",
                  "type": "uint256"
                },
                {
                  "internalType": "uint256",
                  "name": "decimals",
                  "type": "uint256"
                },
                {
                  "internalType": "uint256",
                  "name": "currency",
                  "type": "uint256"
                }
              ],
              "internalType": "struct JBTokenAmount",
              "name": "forwardedAmount",
              "type": "tuple"
            },
            {
              "internalType": "uint256",
              "name": "projectTokenCount",
              "type": "uint256"
            },
            {
              "internalType": "address",
              "name": "beneficiary",
              "type": "address"
            },
            {
              "internalType": "bool",
              "name": "preferClaimedTokens",
              "type": "bool"
            },
            {
              "internalType": "string",
              "name": "memo",
              "type": "string"
            },
            {
              "internalType": "bytes",
              "name": "metadata",
              "type": "bytes"
            }
          ],
          "internalType": "struct JBDidPayData",
          "name": "_data",
          "type": "tuple"
        }
      ],
      "name": "didPay",
      "outputs": [],
      "stateMutability": "payable",
      "type": "function"
    },
    {
      "inputs": [
        {
          "components": [
            {
              "internalType": "address",
              "name": "holder",
              "type": "address"
            },
            {
              "internalType": "uint256",
              "name": "projectId",
              "type": "uint256"
            },
            {
              "internalType": "uint256",
              "name": "currentFundingCycleConfiguration",
              "type": "uint256"
            },
            {
              "internalType": "uint256",
              "name": "projectTokenCount",
              "type": "uint256"
            },
            {
              "components": [
                {
                  "internalType": "address",
                  "name": "token",
                  "type": "address"
                },
                {
                  "internalType": "uint256",
                  "name": "value",
                  "type": "uint256"
                },
                {
                  "internalType": "uint256",
                  "name": "decimals",
                  "type": "uint256"
                },
                {
                  "internalType": "uint256",
                  "name": "currency",
                  "type": "uint256"
                }
              ],
              "internalType": "struct JBTokenAmount",
              "name": "reclaimedAmount",
              "type": "tuple"
            },
            {
              "components": [
                {
                  "internalType": "address",
                  "name": "token",
                  "type": "address"
                },
                {
                  "internalType": "uint256",
                  "name": "value",
                  "type": "uint256"
                },
                {
                  "internalType": "uint256",
                  "name": "decimals",
                  "type": "uint256"
                },
                {
                  "internalType": "uint256",
                  "name": "currency",
                  "type": "uint256"
                }
              ],
              "internalType": "struct JBTokenAmount",
              "name": "forwardedAmount",
              "type": "tuple"
            },
            {
              "internalType": "address payable",
              "name": "beneficiary",
              "type": "address"
            },
            {
              "internalType": "string",
              "name": "memo",
              "type": "string"
            },
            {
              "internalType": "bytes",
              "name": "metadata",
              "type": "bytes"
            }
          ],
          "internalType": "struct JBDidRedeemData",
          "name": "_data",
          "type": "tuple"
        }
      ],
      "name": "didRedeem",
      "outputs": [],
      "stateMutability": "payable",
      "type": "function"
    },
    {
      "inputs": [],
      "name": "directory",
      "outputs": [
        {
          "internalType": "contract IJBDirectory",
          "name": "",
          "type": "address"
        }
      ],
      "stateMutability": "view",
      "type": "function"
    },
    {
      "inputs": [
        {
          "internalType": "uint256",
          "name": "_tokenId",
          "type": "uint256"
        }
      ],
      "name": "firstOwnerOf",
      "outputs": [
        {
          "internalType": "address",
          "name": "",
          "type": "address"
        }
      ],
      "stateMutability": "view",
      "type": "function"
    },
    {
      "inputs": [],
      "name": "fundingCycleStore",
      "outputs": [
        {
          "internalType": "contract IJBFundingCycleStore",
          "name": "",
          "type": "address"
        }
      ],
      "stateMutability": "view",
      "type": "function"
    },
    {
      "inputs": [
        {
          "internalType": "uint256",
          "name": "tokenId",
          "type": "uint256"
        }
      ],
      "name": "getApproved",
      "outputs": [
        {
          "internalType": "address",
          "name": "",
          "type": "address"
        }
      ],
      "stateMutability": "view",
      "type": "function"
    },
    {
      "inputs": [
        {
          "internalType": "uint256",
          "name": "blockNumber",
          "type": "uint256"
        }
      ],
      "name": "getPastTotalSupply",
      "outputs": [
        {
          "internalType": "uint256",
          "name": "",
          "type": "uint256"
        }
      ],
      "stateMutability": "view",
      "type": "function"
    },
    {
      "inputs": [
        {
          "internalType": "address",
          "name": "account",
          "type": "address"
        },
        {
          "internalType": "uint256",
          "name": "blockNumber",
          "type": "uint256"
        }
      ],
      "name": "getPastVotes",
      "outputs": [
        {
          "internalType": "uint256",
          "name": "",
          "type": "uint256"
        }
      ],
      "stateMutability": "view",
      "type": "function"
    },
    {
      "inputs": [
        {
          "internalType": "address",
          "name": "account",
          "type": "address"
        }
      ],
      "name": "getVotes",
      "outputs": [
        {
          "internalType": "uint256",
          "name": "",
          "type": "uint256"
        }
      ],
      "stateMutability": "view",
      "type": "function"
    },
    {
      "inputs": [
        {
          "internalType": "uint256",
          "name": "_projectId",
          "type": "uint256"
        },
        {
          "internalType": "contract IJBDirectory",
          "name": "_directory",
          "type": "address"
        },
        {
          "internalType": "string",
          "name": "_name",
          "type": "string"
        },
        {
          "internalType": "string",
          "name": "_symbol",
          "type": "string"
        },
        {
          "internalType": "contract IJBFundingCycleStore",
          "name": "_fundingCycleStore",
          "type": "address"
        },
        {
          "internalType": "string",
          "name": "_baseUri",
          "type": "string"
        },
        {
          "internalType": "contract IJBTokenUriResolver",
          "name": "_tokenUriResolver",
          "type": "address"
        },
        {
          "internalType": "string",
          "name": "_contractUri",
          "type": "string"
        },
        {
          "components": [
            {
              "components": [
                {
                  "internalType": "uint80",
                  "name": "contributionFloor",
                  "type": "uint80"
                },
                {
                  "internalType": "uint48",
                  "name": "lockedUntil",
                  "type": "uint48"
                },
                {
                  "internalType": "uint40",
                  "name": "initialQuantity",
                  "type": "uint40"
                },
                {
                  "internalType": "uint16",
                  "name": "votingUnits",
                  "type": "uint16"
                },
                {
                  "internalType": "uint16",
                  "name": "reservedRate",
                  "type": "uint16"
                },
                {
                  "internalType": "address",
                  "name": "reservedTokenBeneficiary",
                  "type": "address"
                },
                {
                  "internalType": "bytes32",
                  "name": "encodedIPFSUri",
                  "type": "bytes32"
                },
                {
                  "internalType": "bool",
                  "name": "allowManualMint",
                  "type": "bool"
                },
                {
                  "internalType": "bool",
                  "name": "shouldUseBeneficiaryAsDefault",
                  "type": "bool"
                },
                {
                  "internalType": "bool",
                  "name": "transfersPausable",
                  "type": "bool"
                }
              ],
              "internalType": "struct JB721TierParams[]",
              "name": "tiers",
              "type": "tuple[]"
            },
            {
              "internalType": "uint256",
              "name": "currency",
              "type": "uint256"
            },
            {
              "internalType": "uint256",
              "name": "decimals",
              "type": "uint256"
            },
            {
              "internalType": "contract IJBPrices",
              "name": "prices",
              "type": "address"
            }
          ],
          "internalType": "struct JB721PricingParams",
          "name": "_pricing",
          "type": "tuple"
        },
        {
          "internalType": "contract IJBTiered721DelegateStore",
          "name": "_store",
          "type": "address"
        },
        {
          "components": [
            {
              "internalType": "bool",
              "name": "lockReservedTokenChanges",
              "type": "bool"
            },
            {
              "internalType": "bool",
              "name": "lockVotingUnitChanges",
              "type": "bool"
            },
            {
              "internalType": "bool",
              "name": "lockManualMintingChanges",
              "type": "bool"
            }
          ],
          "internalType": "struct JBTiered721Flags",
          "name": "_flags",
          "type": "tuple"
        }
      ],
      "name": "initialize",
      "outputs": [],
      "stateMutability": "nonpayable",
      "type": "function"
    },
    {
      "inputs": [
        {
          "internalType": "address",
          "name": "owner",
          "type": "address"
        },
        {
          "internalType": "address",
          "name": "operator",
          "type": "address"
        }
      ],
      "name": "isApprovedForAll",
      "outputs": [
        {
          "internalType": "bool",
          "name": "",
          "type": "bool"
        }
      ],
      "stateMutability": "view",
      "type": "function"
    },
    {
      "inputs": [
        {
          "components": [
            {
              "internalType": "uint16[]",
              "name": "tierIds",
              "type": "uint16[]"
            },
            {
              "internalType": "address",
              "name": "beneficiary",
              "type": "address"
            }
          ],
          "internalType": "struct JBTiered721MintForTiersData[]",
          "name": "_mintForTiersData",
          "type": "tuple[]"
        }
      ],
      "name": "mintFor",
      "outputs": [],
      "stateMutability": "nonpayable",
      "type": "function"
    },
    {
      "inputs": [
        {
          "internalType": "uint16[]",
          "name": "_tierIds",
          "type": "uint16[]"
        },
        {
          "internalType": "address",
          "name": "_beneficiary",
          "type": "address"
        }
      ],
      "name": "mintFor",
      "outputs": [
        {
          "internalType": "uint256[]",
          "name": "tokenIds",
          "type": "uint256[]"
        }
      ],
      "stateMutability": "nonpayable",
      "type": "function"
    },
    {
      "inputs": [
        {
          "components": [
            {
              "internalType": "uint256",
              "name": "tierId",
              "type": "uint256"
            },
            {
              "internalType": "uint256",
              "name": "count",
              "type": "uint256"
            }
          ],
          "internalType": "struct JBTiered721MintReservesForTiersData[]",
          "name": "_mintReservesForTiersData",
          "type": "tuple[]"
        }
      ],
      "name": "mintReservesFor",
      "outputs": [],
      "stateMutability": "nonpayable",
      "type": "function"
    },
    {
      "inputs": [
        {
          "internalType": "uint256",
          "name": "_tierId",
          "type": "uint256"
        },
        {
          "internalType": "uint256",
          "name": "_count",
          "type": "uint256"
        }
      ],
      "name": "mintReservesFor",
      "outputs": [],
      "stateMutability": "nonpayable",
      "type": "function"
    },
    {
      "inputs": [],
      "name": "name",
      "outputs": [
        {
          "internalType": "string",
          "name": "",
          "type": "string"
        }
      ],
      "stateMutability": "view",
      "type": "function"
    },
    {
      "inputs": [],
      "name": "owner",
      "outputs": [
        {
          "internalType": "address",
          "name": "",
          "type": "address"
        }
      ],
      "stateMutability": "view",
      "type": "function"
    },
    {
      "inputs": [
        {
          "internalType": "uint256",
          "name": "tokenId",
          "type": "uint256"
        }
      ],
      "name": "ownerOf",
      "outputs": [
        {
          "internalType": "address",
          "name": "",
          "type": "address"
        }
      ],
      "stateMutability": "view",
      "type": "function"
    },
    {
      "inputs": [
        {
          "components": [
            {
              "internalType": "contract IJBPaymentTerminal",
              "name": "terminal",
              "type": "address"
            },
            {
              "internalType": "address",
              "name": "payer",
              "type": "address"
            },
            {
              "components": [
                {
                  "internalType": "address",
                  "name": "token",
                  "type": "address"
                },
                {
                  "internalType": "uint256",
                  "name": "value",
                  "type": "uint256"
                },
                {
                  "internalType": "uint256",
                  "name": "decimals",
                  "type": "uint256"
                },
                {
                  "internalType": "uint256",
                  "name": "currency",
                  "type": "uint256"
                }
              ],
              "internalType": "struct JBTokenAmount",
              "name": "amount",
              "type": "tuple"
            },
            {
              "internalType": "uint256",
              "name": "projectId",
              "type": "uint256"
            },
            {
              "internalType": "uint256",
              "name": "currentFundingCycleConfiguration",
              "type": "uint256"
            },
            {
              "internalType": "address",
              "name": "beneficiary",
              "type": "address"
            },
            {
              "internalType": "uint256",
              "name": "weight",
              "type": "uint256"
            },
            {
              "internalType": "uint256",
              "name": "reservedRate",
              "type": "uint256"
            },
            {
              "internalType": "string",
              "name": "memo",
              "type": "string"
            },
            {
              "internalType": "bytes",
              "name": "metadata",
              "type": "bytes"
            }
          ],
          "internalType": "struct JBPayParamsData",
          "name": "_data",
          "type": "tuple"
        }
      ],
      "name": "payParams",
      "outputs": [
        {
          "internalType": "uint256",
          "name": "weight",
          "type": "uint256"
        },
        {
          "internalType": "string",
          "name": "memo",
          "type": "string"
        },
        {
          "components": [
            {
              "internalType": "contract IJBPayDelegate",
              "name": "delegate",
              "type": "address"
            },
            {
              "internalType": "uint256",
              "name": "amount",
              "type": "uint256"
            }
          ],
          "internalType": "struct JBPayDelegateAllocation[]",
          "name": "delegateAllocations",
          "type": "tuple[]"
        }
      ],
      "stateMutability": "view",
      "type": "function"
    },
    {
      "inputs": [],
      "name": "prices",
      "outputs": [
        {
          "internalType": "contract IJBPrices",
          "name": "",
          "type": "address"
        }
      ],
      "stateMutability": "view",
      "type": "function"
    },
    {
      "inputs": [],
      "name": "pricingCurrency",
      "outputs": [
        {
          "internalType": "uint256",
          "name": "",
          "type": "uint256"
        }
      ],
      "stateMutability": "view",
      "type": "function"
    },
    {
      "inputs": [],
      "name": "pricingDecimals",
      "outputs": [
        {
          "internalType": "uint256",
          "name": "",
          "type": "uint256"
        }
      ],
      "stateMutability": "view",
      "type": "function"
    },
    {
      "inputs": [],
      "name": "projectId",
      "outputs": [
        {
          "internalType": "uint256",
          "name": "",
          "type": "uint256"
        }
      ],
      "stateMutability": "view",
      "type": "function"
    },
    {
      "inputs": [
        {
          "components": [
            {
              "internalType": "contract IJBPaymentTerminal",
              "name": "terminal",
              "type": "address"
            },
            {
              "internalType": "address",
              "name": "holder",
              "type": "address"
            },
            {
              "internalType": "uint256",
              "name": "projectId",
              "type": "uint256"
            },
            {
              "internalType": "uint256",
              "name": "currentFundingCycleConfiguration",
              "type": "uint256"
            },
            {
              "internalType": "uint256",
              "name": "tokenCount",
              "type": "uint256"
            },
            {
              "internalType": "uint256",
              "name": "totalSupply",
              "type": "uint256"
            },
            {
              "internalType": "uint256",
              "name": "overflow",
              "type": "uint256"
            },
            {
              "components": [
                {
                  "internalType": "address",
                  "name": "token",
                  "type": "address"
                },
                {
                  "internalType": "uint256",
                  "name": "value",
                  "type": "uint256"
                },
                {
                  "internalType": "uint256",
                  "name": "decimals",
                  "type": "uint256"
                },
                {
                  "internalType": "uint256",
                  "name": "currency",
                  "type": "uint256"
                }
              ],
              "internalType": "struct JBTokenAmount",
              "name": "reclaimAmount",
              "type": "tuple"
            },
            {
              "internalType": "bool",
              "name": "useTotalOverflow",
              "type": "bool"
            },
            {
              "internalType": "uint256",
              "name": "redemptionRate",
              "type": "uint256"
            },
            {
              "internalType": "string",
              "name": "memo",
              "type": "string"
            },
            {
              "internalType": "bytes",
              "name": "metadata",
              "type": "bytes"
            }
          ],
          "internalType": "struct JBRedeemParamsData",
          "name": "_data",
          "type": "tuple"
        }
      ],
      "name": "redeemParams",
      "outputs": [
        {
          "internalType": "uint256",
          "name": "reclaimAmount",
          "type": "uint256"
        },
        {
          "internalType": "string",
          "name": "memo",
          "type": "string"
        },
        {
          "components": [
            {
              "internalType": "contract IJBRedemptionDelegate",
              "name": "delegate",
              "type": "address"
            },
            {
              "internalType": "uint256",
              "name": "amount",
              "type": "uint256"
            }
          ],
          "internalType": "struct JBRedemptionDelegateAllocation[]",
          "name": "delegateAllocations",
          "type": "tuple[]"
        }
      ],
      "stateMutability": "view",
      "type": "function"
    },
    {
      "inputs": [],
      "name": "renounceOwnership",
      "outputs": [],
      "stateMutability": "nonpayable",
      "type": "function"
    },
    {
      "inputs": [
        {
          "internalType": "address",
          "name": "from",
          "type": "address"
        },
        {
          "internalType": "address",
          "name": "to",
          "type": "address"
        },
        {
          "internalType": "uint256",
          "name": "tokenId",
          "type": "uint256"
        }
      ],
      "name": "safeTransferFrom",
      "outputs": [],
      "stateMutability": "nonpayable",
      "type": "function"
    },
    {
      "inputs": [
        {
          "internalType": "address",
          "name": "from",
          "type": "address"
        },
        {
          "internalType": "address",
          "name": "to",
          "type": "address"
        },
        {
          "internalType": "uint256",
          "name": "tokenId",
          "type": "uint256"
        },
        {
          "internalType": "bytes",
          "name": "data",
          "type": "bytes"
        }
      ],
      "name": "safeTransferFrom",
      "outputs": [],
      "stateMutability": "nonpayable",
      "type": "function"
    },
    {
      "inputs": [
        {
          "internalType": "address",
          "name": "operator",
          "type": "address"
        },
        {
          "internalType": "bool",
          "name": "approved",
          "type": "bool"
        }
      ],
      "name": "setApprovalForAll",
      "outputs": [],
      "stateMutability": "nonpayable",
      "type": "function"
    },
    {
      "inputs": [
        {
          "internalType": "string",
          "name": "_baseUri",
          "type": "string"
        }
      ],
      "name": "setBaseUri",
      "outputs": [],
      "stateMutability": "nonpayable",
      "type": "function"
    },
    {
      "inputs": [
        {
          "internalType": "string",
          "name": "_contractUri",
          "type": "string"
        }
      ],
      "name": "setContractUri",
      "outputs": [],
      "stateMutability": "nonpayable",
      "type": "function"
    },
    {
      "inputs": [
        {
          "internalType": "address",
          "name": "_beneficiary",
          "type": "address"
        }
      ],
      "name": "setDefaultReservedTokenBeneficiary",
      "outputs": [],
      "stateMutability": "nonpayable",
      "type": "function"
    },
    {
      "inputs": [
        {
          "internalType": "contract IJBTokenUriResolver",
          "name": "_tokenUriResolver",
          "type": "address"
        }
      ],
      "name": "setTokenUriResolver",
      "outputs": [],
      "stateMutability": "nonpayable",
      "type": "function"
    },
    {
      "inputs": [],
      "name": "store",
      "outputs": [
        {
          "internalType": "contract IJBTiered721DelegateStore",
          "name": "",
          "type": "address"
        }
      ],
      "stateMutability": "view",
      "type": "function"
    },
    {
      "inputs": [
        {
          "internalType": "bytes4",
          "name": "_interfaceId",
          "type": "bytes4"
        }
      ],
      "name": "supportsInterface",
      "outputs": [
        {
          "internalType": "bool",
          "name": "",
          "type": "bool"
        }
      ],
      "stateMutability": "view",
      "type": "function"
    },
    {
      "inputs": [],
      "name": "symbol",
      "outputs": [
        {
          "internalType": "string",
          "name": "",
          "type": "string"
        }
      ],
      "stateMutability": "view",
      "type": "function"
    },
    {
      "inputs": [
        {
          "internalType": "uint256",
          "name": "_tokenId",
          "type": "uint256"
        }
      ],
      "name": "tokenURI",
      "outputs": [
        {
          "internalType": "string",
          "name": "",
          "type": "string"
        }
      ],
      "stateMutability": "view",
      "type": "function"
    },
    {
      "inputs": [
        {
          "internalType": "address",
          "name": "from",
          "type": "address"
        },
        {
          "internalType": "address",
          "name": "to",
          "type": "address"
        },
        {
          "internalType": "uint256",
          "name": "tokenId",
          "type": "uint256"
        }
      ],
      "name": "transferFrom",
      "outputs": [],
      "stateMutability": "nonpayable",
      "type": "function"
    },
    {
      "inputs": [
        {
          "internalType": "address",
          "name": "newOwner",
          "type": "address"
        }
      ],
      "name": "transferOwnership",
      "outputs": [],
      "stateMutability": "nonpayable",
      "type": "function"
    }
  ],
  "bytecode": {
    "object": "0x60806040523480156200001157600080fd5b506200001d3362000035565b600b80546001600160a01b0319163017905562000087565b600a80546001600160a01b038381166001600160a01b0319831681179093556040519116919082907f8be0079c531659141344cd1fd0a4f28419497f9722a3daafe3b4186f6b6457e090600090a35050565b61552480620000976000396000f3fe60806040526004361061027d5760003560e01c8063715018a61161014f578063bb52b6e4116100c1578063da9ee8b71161007a578063da9ee8b7146107c0578063df487e26146107d3578063e8a3d485146107f3578063e985e9c514610808578063f2fde38b14610851578063f5a38e631461087157600080fd5b8063bb52b6e414610700578063c41c2f2414610720578063c87b56dd14610740578063ccb4807b14610760578063d3419bf314610780578063d46cf171146107a057600080fd5b80639ab24eb0116101135780639ab24eb014610631578063a0bcfc7f14610651578063a22cb46514610671578063a51cfd1814610691578063aa4fb15b146106c0578063b88d4fde146106e057600080fd5b8063715018a6146105a95780638da5cb5b146105be5780638e539e8c146105dc57806395d89b41146105fc578063975057e71461061157600080fd5b80633a46b1a8116101f3578063587cde1e116101ac578063587cde1e146104cd5780635c19a95c146105065780636352211e1461052657806364640c1e146105465780636ac6d9411461055c57806370a082311461058957600080fd5b80633a46b1a8146104215780633fafa1271461044157806342842e0e146104575780634ecba6251461047757806354c6d1f51461048d578063557e7155146104ad57600080fd5b806323b872dd1161024557806323b872dd146103535780632407497e14610373578063245a45b5146103935780632a596e53146103ce5780632b13c58f146103ee57806336c1a93b1461040157600080fd5b806301ffc9a71461028257806306fdde03146102b7578063081812fc146102d9578063095ea7b3146103115780631d153ca414610333575b600080fd5b34801561028e57600080fd5b506102a261029d366004613cb3565b610891565b60405190151581526020015b60405180910390f35b3480156102c357600080fd5b506102cc6108bc565b6040516102ae9190613d20565b3480156102e557600080fd5b506102f96102f4366004613d33565b61094e565b6040516001600160a01b0390911681526020016102ae565b34801561031d57600080fd5b5061033161032c366004613d71565b610975565b005b34801561033f57600080fd5b50600b546102f9906001600160a01b031681565b34801561035f57600080fd5b5061033161036e366004613d9d565b610a01565b34801561037f57600080fd5b5061033161038e366004613dde565b610a33565b34801561039f57600080fd5b506103c06103ae366004613dde565b60116020526000908152604090205481565b6040519081526020016102ae565b3480156103da57600080fd5b506103316103e9366004613dfb565b610adc565b6103316103fc366004613e88565b610b35565b34801561040d57600080fd5b5061033161041c366004613f00565b610d0f565b34801561042d57600080fd5b506103c061043c366004613d71565b610d71565b34801561044d57600080fd5b506103c060085481565b34801561046357600080fd5b50610331610472366004613d9d565b610d9a565b34801561048357600080fd5b506103c060105481565b34801561049957600080fd5b506102f96104a8366004613d33565b610db5565b3480156104b957600080fd5b50600d546102f9906001600160a01b031681565b3480156104d957600080fd5b506102f96104e8366004613dde565b6001600160a01b039081166000908152602081905260409020541690565b34801561051257600080fd5b50610331610521366004613dde565b610e61565b34801561053257600080fd5b506102f9610541366004613d33565b610e6e565b34801561055257600080fd5b506103c0600f5481565b34801561056857600080fd5b5061057c610577366004613f41565b610ea4565b6040516102ae9190613fd2565b34801561059557600080fd5b506103c06105a4366004613dde565b610fea565b3480156105b557600080fd5b50610331611060565b3480156105ca57600080fd5b50600a546001600160a01b03166102f9565b3480156105e857600080fd5b506103c06105f7366004613d33565b611074565b34801561060857600080fd5b506102cc6110a1565b34801561061d57600080fd5b50600c546102f9906001600160a01b031681565b34801561063d57600080fd5b506103c061064c366004613dde565b6110b0565b34801561065d57600080fd5b5061033161066c366004613fe5565b6110d1565b34801561067d57600080fd5b5061033161068c36600461405d565b61118c565b34801561069d57600080fd5b506106b16106ac366004613e88565b61119b565b6040516102ae93929190614096565b3480156106cc57600080fd5b506103316106db366004614108565b6113fa565b3480156106ec57600080fd5b506103316106fb366004614266565b611617565b34801561070c57600080fd5b5061033161071b366004614567565b61164a565b34801561072c57600080fd5b506009546102f9906001600160a01b031681565b34801561074c57600080fd5b506102cc61075b366004613d33565b611930565b34801561076c57600080fd5b5061033161077b366004613fe5565b611b38565b34801561078c57600080fd5b50600e546102f9906001600160a01b031681565b3480156107ac57600080fd5b506106b16107bb3660046146a0565b611beb565b6103316107ce3660046146db565b611cce565b3480156107df57600080fd5b506103316107ee366004613dde565b611d85565b3480156107ff57600080fd5b506102cc611e27565b34801561081457600080fd5b506102a2610823366004614716565b6001600160a01b03918216600090815260076020908152604080832093909416825291909152205460ff1690565b34801561085d57600080fd5b5061033161086c366004613dde565b611e9d565b34801561087d57600080fd5b5061033161088c366004614744565b611f18565b60006001600160e01b03198216631e68505960e31b14806108b657506108b6826120fb565b92915050565b6060600380546108cb906147de565b80601f01602080910402602001604051908101604052809291908181526020018280546108f7906147de565b80156109445780601f1061091957610100808354040283529160200191610944565b820191906000526020600020905b81548152906001019060200180831161092757829003601f168201915b5050505050905090565b600061095982612171565b506000908152600660205260409020546001600160a01b031690565b600061098082610e6e565b9050806001600160a01b0316836001600160a01b0316036109b45760405163133f8be960e01b815260040160405180910390fd5b336001600160a01b038216148015906109d457506109d28133610823565b155b156109f25760405163e5fa0e3560e01b815260040160405180910390fd5b6109fc83836121a6565b505050565b610a0b3382612214565b610a285760405163e5fa0e3560e01b815260040160405180910390fd5b6109fc838383612293565b610a3b61236c565b600c5460405163036129cb60e61b81526001600160a01b0383811660048301529091169063d84a72c090602401600060405180830381600087803b158015610a8257600080fd5b505af1158015610a96573d6000803e3d6000fd5b50506040513381526001600160a01b03841692507fe7784d93cfbfa4408e19577e6cc0436f4dbb51214b70e100905dfce9def88c1691506020015b60405180910390a250565b8060005b81811015610b2f576000848483818110610afc57610afc614812565b905060400201803603810190610b129190614828565b9050610b26816000015182602001516113fa565b50600101610ae0565b50505050565b34151580610bb75750600954600854604051636e49181f60e01b815260048101919091523360248201526001600160a01b0390911690636e49181f90604401602060405180830381865afa158015610b91573d6000803e3d6000fd5b505050506040513d601f19601f82011682018060405250810190610bb59190614881565b155b80610bc85750600854816020013514155b15610be657604051633efca5c360e11b815260040160405180910390fd5b6024610bf66101c083018361489e565b90501080610c3a575063b3bcbb7960e01b610c156101c083018361489e565b610c24916024916020916148e4565b610c2d9161490e565b6001600160e01b03191614155b15610c5857604051632a84050f60e01b815260040160405180910390fd5b6000610c686101c083018361489e565b810190610c75919061493e565b925050506000815190506000805b82811015610d0557838181518110610c9d57610c9d614812565b60200260200101519150846000016020810190610cba9190613dde565b6000838152600560205260409020546001600160a01b03908116911614610cf45760405163075fd2b160e01b815260040160405180910390fd5b610cfd826123c6565b600101610c83565b50610b2f83612447565b610d1761236c565b8060005b81811015610b2f5736848483818110610d3657610d36614812565b9050602002810190610d4891906149ec565b9050610d67610d578280614a0c565b6105776040850160208601613dde565b5050600101610d1b565b6001600160a01b0382166000908152600160205260408120610d9390836124ac565b9392505050565b6109fc83838360405180602001604052806000815250611617565b600c546040516308ed6c0160e41b81523060048201526024810183905260009182916001600160a01b0390911690638ed6c01090604401602060405180830381865afa158015610e09573d6000803e3d6000fd5b505050506040513d601f19601f82011682018060405250810190610e2d9190614a60565b90506001600160a01b03811615610e445792915050565b50506000908152600560205260409020546001600160a01b031690565b610e6b33826125bb565b50565b6000818152600560205260408120546001600160a01b0316806108b65760405163b49aa3b560e01b815260040160405180910390fd5b6060610eae61236c565b600c5460405163eaa19ab360e01b81526001600160a01b039091169063eaa19ab390610ee7906000199088908890600190600401614a7d565b6000604051808303816000875af1158015610f06573d6000803e3d6000fd5b505050506040513d6000823e601f3d908101601f19168201604052610f2e9190810190614b40565b509050826000805b82811015610fe057838181518110610f5057610f50614812565b60200260200101519150610f64858361262d565b846001600160a01b0316878783818110610f8057610f80614812565b9050602002016020810190610f959190614b86565b604080516000815233602082015261ffff929092169185917f598baf7bf150ca2f42be9e9f8f55e81d45f5715c3ff22bf46d697fabec7f31d6910160405180910390a4600101610f36565b5050509392505050565b600c54604051633de222bb60e21b81523060048201526001600160a01b038381166024830152600092169063f7888aec906044015b602060405180830381865afa15801561103c573d6000803e3d6000fd5b505050506040513d601f19601f820116820180604052508101906108b69190614ba1565b61106861236c565b61107260006126f7565b565b6000438210611096576040516305b5e09b60e51b815260040160405180910390fd5b6108b66002836124ac565b6060600480546108cb906147de565b6001600160a01b03811660009081526001602052604081206108b690612749565b6110d961236c565b600c546040516331315e5960e11b81526001600160a01b0390911690636262bcb29061110b9085908590600401614bba565b600060405180830381600087803b15801561112557600080fd5b505af1158015611139573d6000803e3d6000fd5b50505050818160405161114d929190614be9565b604051908190038120338252907f7bc9110d5de090dd59e07912d2b93a5a27ac70a60c8d8e324db4f9ee8b8b5c13906020015b60405180910390a25050565b6111973383836127a5565b5050565b60006060806080840135156111c3576040516309f82f1b60e31b815260040160405180910390fd5b60246111d36101c086018661489e565b90501080611217575063b3bcbb7960e01b6111f26101c086018661489e565b611201916024916020916148e4565b61120a9161490e565b6001600160e01b03191614155b1561123557604051632a84050f60e01b815260040160405180910390fd5b60408051600180825281830190925290816020015b604080518082019091526000808252602082015281526020019060019003908161124a5790505090506040518060400160405280306001600160a01b031681526020016000815250816000815181106112a5576112a5614812565b602090810291909101015260006112c06101c086018661489e565b8101906112cd919061493e565b9250505060006112dd8287612844565b905060006112ea876128b8565b905060006112fd8860c0013584846128e9565b905061271088610180013503611368578061131c6101a08a018a61489e565b8782828080601f016020809104026020016040519081016040528093929190818152602001838380828437600092019190915250969d50919b509199506113f398505050505050505050565b61139e81611387856113816101808d0135612710614c0f565b866128e9565b611396906101808c0135614c22565b6127106128e9565b6113ac6101a08a018a61489e565b8782828080601f016020809104026020016040519081016040528093929190818152602001838380828437600092019190915250969d50919b509199505050505050505050505b9193909250565b600d546008546040516321d1336160e11b815260048101919091526000916001600160a01b0316906343a266c29060240161012060405180830381865afa158015611449573d6000803e3d6000fd5b505050506040513d601f19601f8201168201806040525081019061146d9190614c35565b61010081015190915060f51c60019081160361149c57604051631d2c125760e31b815260040160405180910390fd5b600c54604051635d53f40760e11b815260048101859052602481018490526000916001600160a01b03169063baa7e80e906044016000604051808303816000875af11580156114ef573d6000803e3d6000fd5b505050506040513d6000823e601f3d908101601f191682016040526115179190810190614cb5565b600c546040516304db994760e21b8152306004820152602481018790529192506000916001600160a01b039091169063136e651c90604401602060405180830381865afa15801561156c573d6000803e3d6000fd5b505050506040513d601f19601f820116820180604052508101906115909190614a60565b90506000805b8581101561160e578381815181106115b0576115b0614812565b602002602001015191506115c4838361262d565b6040513381526001600160a01b03841690889084907f031e1988c95a91ec4d655ff63a8f87a80bc9daf28d95ae10ee08c0022cfb5c8b9060200160405180910390a4600101611596565b50505050505050565b6116213383612214565b61163e5760405163e5fa0e3560e01b815260040160405180910390fd5b610b2f848484846129b5565b600b546001600160a01b0316300361166157600080fd5b600c546001600160a01b03161561167757600080fd5b6116838b8b8b8b6129e9565b600d80546001600160a01b03808a166001600160a01b031992831617909255600c80548584169083161790556020850151600f5560408501516010556060850151600e8054919093169116179055855115611737576040516331315e5960e11b81526001600160a01b03831690636262bcb290611704908990600401613d20565b600060405180830381600087803b15801561171e57600080fd5b505af1158015611732573d6000803e3d6000fd5b505050505b83511561179d5760405163d67b78fd60e01b81526001600160a01b0383169063d67b78fd9061176a908790600401613d20565b600060405180830381600087803b15801561178457600080fd5b505af1158015611798573d6000803e3d6000fd5b505050505b6001600160a01b038516156118085760405163036129cb60e61b81526001600160a01b03868116600483015283169063d84a72c090602401600060405180830381600087803b1580156117ef57600080fd5b505af1158015611803573d6000803e3d6000fd5b505050505b8251511561188657825160405163eadd8b3760e01b81526001600160a01b0384169163eadd8b379161183d9190600401614ce9565b6000604051808303816000875af115801561185c573d6000803e3d6000fd5b505050506040513d6000823e601f3d908101601f191682016040526118849190810190614cb5565b505b805180611894575080602001515b806118a0575080604001515b1561191a576040805163cdb0af6d60e01b815282511515600482015260208301511515602482015290820151151560448201526001600160a01b0383169063cdb0af6d90606401600060405180830381600087803b15801561190157600080fd5b505af1158015611915573d6000803e3d6000fd5b505050505b611923336126f7565b5050505050505050505050565b6000818152600560205260409020546060906001600160a01b031661196357505060408051602081019091526000815290565b600c54604051630fab094760e01b81523060048201526000916001600160a01b031690630fab094790602401602060405180830381865afa1580156119ac573d6000803e3d6000fd5b505050506040513d601f19601f820116820180604052508101906119d09190614a60565b90506001600160a01b03811615611a4e57604051636d02a25560e11b8152600481018490526001600160a01b0382169063da0544aa90602401600060405180830381865afa158015611a26573d6000803e3d6000fd5b505050506040513d6000823e601f3d908101601f19168201604052610d939190810190614dc2565b600c5460405163f682eeaf60e01b8152306004820152610d93916001600160a01b03169063f682eeaf90602401600060405180830381865afa158015611a98573d6000803e3d6000fd5b505050506040513d6000823e601f3d908101601f19168201604052611ac09190810190614dc2565b600c54604051630c8df17160e41b8152306004820152602481018790526001600160a01b039091169063c8df171090604401602060405180830381865afa158015611b0f573d6000803e3d6000fd5b505050506040513d601f19601f82011682018060405250810190611b339190614ba1565b612a1c565b611b4061236c565b600c5460405163d67b78fd60e01b81526001600160a01b039091169063d67b78fd90611b729085908590600401614bba565b600060405180830381600087803b158015611b8c57600080fd5b505af1158015611ba0573d6000803e3d6000fd5b505050508181604051611bb4929190614be9565b604051908190038120338252907fd36dc0c1a06103fdcaf15f3f6fb797d1a97997514c78de073640c8b5005454b890602001611180565b610120810135606080611c0261016085018561489e565b8080601f01602080910402602001604051908101604052809392919081815260200183838082843760009201919091525092945060019250611c42915050565b604051908082528060200260200182016040528015611c8757816020015b6040805180820190915260008082526020820152815260200190600190039081611c605790505b5090506040518060400160405280306001600160a01b03168152602001600081525081600081518110611cbc57611cbc614812565b60200260200101819052509193909250565b60085434151580611d4f5750600954604051636e49181f60e01b8152600481018390523360248201526001600160a01b0390911690636e49181f90604401602060405180830381865afa158015611d29573d6000803e3d6000fd5b505050506040513d601f19601f82011682018060405250810190611d4d9190614881565b155b80611d5e575080826020013514155b15611d7c576040516331c57b1b60e21b815260040160405180910390fd5b61119782612a83565b611d8d61236c565b600c546040516317161f7d60e01b81526001600160a01b038381166004830152909116906317161f7d90602401600060405180830381600087803b158015611dd457600080fd5b505af1158015611de8573d6000803e3d6000fd5b50506040513381526001600160a01b03841692507fab0014d4c7a642a02a31b303a318908c22b0fb2001f107278fc6076b4c671b659150602001610ad1565b600c54604051630155619b60e71b81523060048201526060916001600160a01b03169063aab0cd8090602401600060405180830381865afa158015611e70573d6000803e3d6000fd5b505050506040513d6000823e601f3d908101601f19168201604052611e989190810190614dc2565b905090565b611ea561236c565b6001600160a01b038116611f0f5760405162461bcd60e51b815260206004820152602660248201527f4f776e61626c653a206e6577206f776e657220697320746865207a65726f206160448201526564647265737360d01b60648201526084015b60405180910390fd5b610e6b816126f7565b611f2061236c565b82818015611ff057600c546040516320512ba160e01b81526001600160a01b03909116906320512ba190611f5a9087908790600401614e2f565b600060405180830381600087803b158015611f7457600080fd5b505af1158015611f88573d6000803e3d6000fd5b5050505060005b81811015611fee57848482818110611fa957611fa9614812565b60405133815260209182029390930135927f832d89d991be5351d793c20faf4b7dd44f8aa9ce39e3cb160c6317de6fbba72992500160405180910390a2600101611f8f565b505b81156120f357600c5460405163eadd8b3760e01b81526000916001600160a01b03169063eadd8b3790612029908a908a90600401614f45565b6000604051808303816000875af1158015612048573d6000803e3d6000fd5b505050506040513d6000823e601f3d908101601f191682016040526120709190810190614cb5565b905060005b838110156120f05781818151811061208f5761208f614812565b60200260200101517f85b5b4c4e44e342c8dac3c3a5364494d455043decb9f4bb8e7e0a3020d22fed48989848181106120ca576120ca614812565b90506101400201336040516120e0929190614f88565b60405180910390a2600101612075565b50505b505050505050565b60006001600160e01b0319821663b3bcbb7960e01b148061212c57506001600160e01b031982166371700c6960e01b145b8061214757506001600160e01b0319821663da9ee8b760e01b145b8061216257506001600160e01b03198216632b13c58f60e01b145b806108b657506108b682612da9565b6000818152600560205260409020546001600160a01b0316610e6b5760405163b49aa3b560e01b815260040160405180910390fd5b600081815260066020526040902080546001600160a01b0319166001600160a01b03841690811790915581906121db82610e6e565b6001600160a01b03167f8c5be1e5ebec7d5bd14f71427d1e84f3dd0314c0f7b2291e5b200ac8c7c3b92560405160405180910390a45050565b60008061222083610e6e565b9050806001600160a01b0316846001600160a01b0316148061226757506001600160a01b0380821660009081526007602090815260408083209388168352929052205460ff165b8061228b5750836001600160a01b03166122808461094e565b6001600160a01b0316145b949350505050565b826001600160a01b03166122a682610e6e565b6001600160a01b0316146122cd5760405163a195bc5360e01b815260040160405180910390fd5b6001600160a01b0382166122f457604051632c95542760e01b815260040160405180910390fd5b6122ff838383612df9565b61230a6000826121a6565b60008181526005602052604080822080546001600160a01b0319166001600160a01b0386811691821790925591518493918716917fddf252ad1be2c89b69c2b068fc378daa952ba7f163c4a11628f55a4df523b3ef91a46109fc838383613026565b600a546001600160a01b031633146110725760405162461bcd60e51b815260206004820181905260248201527f4f776e61626c653a2063616c6c6572206973206e6f7420746865206f776e65726044820152606401611f06565b60006123d182610e6e565b90506123df81600084612df9565b6123ea6000836121a6565b60008281526005602052604080822080546001600160a01b0319169055518391906001600160a01b038416907fddf252ad1be2c89b69c2b068fc378daa952ba7f163c4a11628f55a4df523b3ef908390a461119781600084613026565b600c546040516386bc2be360e01b81526001600160a01b03909116906386bc2be390612477908490600401613fd2565b600060405180830381600087803b15801561249157600080fd5b505af11580156124a5573d6000803e3d6000fd5b5050505050565b60004382106124fd5760405162461bcd60e51b815260206004820181905260248201527f436865636b706f696e74733a20626c6f636b206e6f7420796574206d696e65646044820152606401611f06565b825460005b81811015612562576000612516828461311f565b90508486600001828154811061252e5761252e614812565b60009182526020909120015463ffffffff16111561254e5780925061255c565b612559816001614c22565b91505b50612502565b81156125a65784612574600184614c0f565b8154811061258457612584614812565b60009182526020909120015464010000000090046001600160e01b03166125a9565b60005b6001600160e01b031695945050505050565b6001600160a01b0382811660008181526020819052604080822080548686166001600160a01b0319821681179092559151919094169392849290917f3134e8a2e6d97e929a7e54011ea5485d7d196dd5f0ba4d4ef95803e8e3fc257f9190a46109fc81836126288661313a565b613173565b6001600160a01b03821661265457604051633904578f60e11b815260040160405180910390fd5b6000818152600560205260409020546001600160a01b03161561268a57604051632eb5f0c360e21b815260040160405180910390fd5b61269660008383612df9565b60008181526005602052604080822080546001600160a01b0319166001600160a01b03861690811790915590518392907fddf252ad1be2c89b69c2b068fc378daa952ba7f163c4a11628f55a4df523b3ef908290a461119760008383613026565b600a80546001600160a01b038381166001600160a01b0319831681179093556040519116919082907f8be0079c531659141344cd1fd0a4f28419497f9722a3daafe3b4186f6b6457e090600090a35050565b805460009080156127925782612760600183614c0f565b8154811061277057612770614812565b60009182526020909120015464010000000090046001600160e01b0316612795565b60005b6001600160e01b03169392505050565b816001600160a01b0316836001600160a01b0316036127d7576040516306f8139d60e11b815260040160405180910390fd5b6001600160a01b03838116600081815260076020908152604080832094871680845294825291829020805460ff191686151590811790915591519182527f17307eab39ab6107e8899845ad3d59bd9653f200f220920489ca2b5937696c31910160405180910390a3505050565b600c5460405163051330b560e21b81526000916001600160a01b03169063144cc2d4906128779030908790600401614fb0565b602060405180830381865afa158015612894573d6000803e3d6000fd5b505050506040513d601f19601f82011682018060405250810190610d939190614ba1565b600c54604051631572f24960e11b81523060048201526000916001600160a01b031690632ae5e4929060240161101f565b60008080600019858709858702925082811083820303915050806000036129235783828161291957612919614fd4565b0492505050610d93565b83811061294d57604051631dcf306360e21b81526004810182905260248101859052604401611f06565b600084868809600260036001881981018916988990049182028318808302840302808302840302808302840302808302840302808302840302918202909203026000889003889004909101858311909403939093029303949094049190911702949350505050565b6129c0848484612293565b6129cc848484846132b0565b610b2f576040516336f57c1b60e11b815260040160405180910390fd5b6129f382826133b2565b5050600891909155600980546001600160a01b0319166001600160a01b03909216919091179055565b604051609160f51b60208201526022810182905260609060009060420160405160208183030381529060405290506000612a55826133cb565b90508481604051602001612a6a929190614fea565b6040516020818303038152906040529250505092915050565b600f5460009060c083013503612a9e57506080810135612b54565b600e546001600160a01b03161561119757601054612b5190608084013590612ac790600a6150fd565b600e54600f54604051635268657960e11b815260c08801356004820152602481019190915260a087013560448201526001600160a01b039091169063a4d0caf290606401602060405180830381865afa158015612b28573d6000803e3d6000fd5b505050506040513d601f19601f82011682018060405250810190612b4c9190614ba1565b6128e9565b90505b6000601181612b6b6101a086016101808701613dde565b6001600160a01b03168152602081019190915260400160009081205491508290612b9d6101a086016101808701613dde565b6001600160a01b0316612bb36020870187613dde565b6001600160a01b031603612bca5790820190612bcd565b50815b6000806044612be06101e089018961489e565b9050118015612c24575063b3bcbb7960e01b612c006101e089018961489e565b612c0f916044916040916148e4565b612c189161490e565b6001600160e01b031916145b15612cc45760006060612c3b6101e08a018a61489e565b810190612c489190615109565b919950975090955093505083159150612c9b90505785850160116000612c766101a08d016101808e01613dde565b6001600160a01b03168152602081019190915260400160002055505050505050505050565b805115612cc157612cbe8682612cb96101a08d016101808e01613dde565b613563565b95505b50505b8315612d6857612ce684612ce06101a08a016101808b01613dde565b846136a5565b93508315612d45578015612d0d57604051631b57826960e21b815260040160405180910390fd5b83830160116000612d266101a08b016101808c01613dde565b6001600160a01b0316815260208101919091526040016000205561160e565b828514612d63578260116000612d266101a08b016101808c01613dde565b61160e565b82851461160e578260116000612d866101a08b016101808c01613dde565b6001600160a01b0316815260208101919091526040016000205550505050505050565b60006001600160e01b031982166380ac58cd60e01b1480612dda57506001600160e01b03198216635b5e139f60e01b145b806108b657506301ffc9a760e01b6001600160e01b03198316146108b6565b6001600160a01b038316156109fc57600c5460405163b67cb04760e01b8152306004820152602481018390526000916001600160a01b03169063b67cb0479060440161016060405180830381865afa158015612e59573d6000803e3d6000fd5b505050506040513d601f19601f82011682018060405250810190612e7d9190615200565b905080610140015115612f4257600d546008546040516321d1336160e11b815260048101919091526000916001600160a01b0316906343a266c29060240161012060405180830381865afa158015612ed9573d6000803e3d6000fd5b505050506040513d601f19601f82011682018060405250810190612efd9190614c35565b90506001600160a01b03841615801590612f22575061010081015160f41c6001908116145b15612f40576040516318cdaf9760e01b815260040160405180910390fd5b505b600c546040516308ed6c0160e41b8152306004820152602481018490526000916001600160a01b031690638ed6c01090604401602060405180830381865afa158015612f92573d6000803e3d6000fd5b505050506040513d601f19601f82011682018060405250810190612fb69190614a60565b6001600160a01b031603610b2f57600c54604051638cec7d3960e01b8152600481018490526001600160a01b03868116602483015290911690638cec7d3990604401600060405180830381600087803b15801561301257600080fd5b505af11580156120f0573d6000803e3d6000fd5b600c5460405163b67cb04760e01b8152306004820152602481018390526000916001600160a01b03169063b67cb0479060440161016060405180830381865afa158015613077573d6000803e3d6000fd5b505050506040513d601f19601f8201168201806040525081019061309b9190615200565b600c5481516040516330b157e560e21b815260048101919091526001600160a01b038781166024830152868116604483015292935091169063c2c55f9490606401600060405180830381600087803b1580156130f657600080fd5b505af115801561310a573d6000803e3d6000fd5b5050505061311a848484846137af565b610b2f565b600061312e60028484186152a2565b610d9390848416614c22565b600c54604051631266aaaf60e31b81523060048201526001600160a01b038381166024830152600092169063933555789060440161101f565b816001600160a01b0316836001600160a01b0316141580156131955750600081115b156109fc576001600160a01b03831615613223576001600160a01b038316600090815260016020526040812081906131d0906137c8856137d4565b91509150846001600160a01b03167fdec2bacdd2f05b59de34da9b523dff8be42e5e38e818c82fdb0bae774387a7248383604051613218929190918252602082015260400190565b60405180910390a250505b6001600160a01b038216156109fc576001600160a01b0382166000908152600160205260408120819061325990613802856137d4565b91509150836001600160a01b03167fdec2bacdd2f05b59de34da9b523dff8be42e5e38e818c82fdb0bae774387a72483836040516132a1929190918252602082015260400190565b60405180910390a25050505050565b60006001600160a01b0384163b156133a757604051630a85bd0160e11b81526001600160a01b0385169063150b7a02906132f49033908990889088906004016152b6565b6020604051808303816000875af192505050801561332f575060408051601f3d908101601f1916820190925261332c918101906152f3565b60015b61338d573d80801561335d576040519150601f19603f3d011682016040523d82523d6000602084013e613362565b606091505b508051600003613385576040516336f57c1b60e11b815260040160405180910390fd5b805181602001fd5b6001600160e01b031916630a85bd0160e11b14905061228b565b506001949350505050565b60036133be8382615356565b5060046109fc8282615356565b606081516000036133ea57505060408051600081526020810190915290565b60408051602e8082526105e08201909252600091602082016105c08036833701905050905060008160008151811061342457613424614812565b60ff90921660209283029190910190910152825160019060005b8181101561353f57600086828151811061345a5761345a614812565b016020015160f81c905060005b8460ff168110156134e457600886828151811061348657613486614812565b602002602001015160ff16901b8261349e9190614c22565b91506134ab603a83615415565b8682815181106134bd576134bd614812565b60ff909216602092830291909101909101526134da603a836152a2565b9150600101613467565b505b8015613536576134f7603a82615415565b858560ff168151811061350c5761350c614812565b60ff9092166020928302919091019091015260019093019261352f603a826152a2565b90506134e6565b5060010161343e565b5061355a613555613550858561380e565b6138b5565b613957565b95945050505050565b600c5460405163eaa19ab360e01b81526000916060916001600160a01b039091169063eaa19ab39061359d90889088908790600401615429565b6000604051808303816000875af11580156135bc573d6000803e3d6000fd5b505050506040513d6000823e601f3d908101601f191682016040526135e49190810190614b40565b81519093509091506000805b8281101561369a5783818151811061360a5761360a614812565b6020026020010151915061361e868361262d565b856001600160a01b031687828151811061363a5761363a614812565b602002602001015161ffff16837f598baf7bf150ca2f42be9e9f8f55e81d45f5715c3ff22bf46d697fabec7f31d68b3360405161368a9291909182526001600160a01b0316602082015260400190565b60405180910390a46001016135f0565b505050509392505050565b600c5460405163879791f360e01b815260048101859052600091829182916001600160a01b03169063879791f3906024016060604051808303816000875af11580156136f5573d6000803e3d6000fd5b505050506040513d601f19601f820116820180604052508101906137199190615486565b94509092509050600082900361374f57831561374857604051630e5313df60e41b815260040160405180910390fd5b5050610d93565b613759858361262d565b6001600160a01b03851681837f598baf7bf150ca2f42be9e9f8f55e81d45f5715c3ff22bf46d697fabec7f31d6613790878b614c0f565b604080519182523360208301520160405180910390a450509392505050565b60a081015115610b2f57610b2f84848360a00151613a30565b6000610d938284614c0f565b6000806137f6856137f16137e788612749565b868863ffffffff16565b613aa0565b91509150935093915050565b6000610d938284614c22565b606060008260ff166001600160401b0381111561382d5761382d61412a565b604051908082528060200260200182016040528015613856578160200160208202803683370190505b50905060005b8360ff168110156138ad5784818151811061387957613879614812565b602002602001015182828151811061389357613893614812565b60ff9092166020928302919091019091015260010161385c565b509392505050565b80516060906000816001600160401b038111156138d4576138d461412a565b6040519080825280602002602001820160405280156138fd578160200160208202803683370190505b50905060005b828110156138ad5784816001875103038151811061392357613923614812565b602002602001015182828151811061393d5761393d614812565b60ff90921660209283029190910190910152600101613903565b80516060906000816001600160401b038111156139765761397661412a565b6040519080825280601f01601f1916602001820160405280156139a0576020820181803683370190505b50905060005b828110156138ad576040518060600160405280603a81526020016154b5603a91398582815181106139d9576139d9614812565b602002602001015160ff16815181106139f4576139f4614812565b602001015160f81c60f81b828281518110613a1157613a11614812565b60200101906001600160f81b031916908160001a9053506001016139a6565b6001600160a01b038316613a4f57613a4c6002613802836137d4565b50505b6001600160a01b038216613a6e57613a6b60026137c8836137d4565b50505b6001600160a01b038381166000908152602081905260408082205485841683529120546109fc92918216911683613173565b8154600090819081613ab186612749565b9050600082118015613aef57504386613acb600185614c0f565b81548110613adb57613adb614812565b60009182526020909120015463ffffffff16145b15613b4f57613afd85613bcb565b86613b09600185614c0f565b81548110613b1957613b19614812565b9060005260206000200160000160046101000a8154816001600160e01b0302191690836001600160e01b03160217905550613bbd565b856000016040518060400160405280613b6743613c38565b63ffffffff168152602001613b7b88613bcb565b6001600160e01b0390811690915282546001810184556000938452602093849020835194909301519091166401000000000263ffffffff909316929092179101555b9250839150505b9250929050565b60006001600160e01b03821115613c345760405162461bcd60e51b815260206004820152602760248201527f53616665436173743a2076616c756520646f65736e27742066697420696e20326044820152663234206269747360c81b6064820152608401611f06565b5090565b600063ffffffff821115613c345760405162461bcd60e51b815260206004820152602660248201527f53616665436173743a2076616c756520646f65736e27742066697420696e203360448201526532206269747360d01b6064820152608401611f06565b6001600160e01b031981168114610e6b57600080fd5b600060208284031215613cc557600080fd5b8135610d9381613c9d565b60005b83811015613ceb578181015183820152602001613cd3565b50506000910152565b60008151808452613d0c816020860160208601613cd0565b601f01601f19169290920160200192915050565b602081526000610d936020830184613cf4565b600060208284031215613d4557600080fd5b5035919050565b6001600160a01b0381168114610e6b57600080fd5b8035613d6c81613d4c565b919050565b60008060408385031215613d8457600080fd5b8235613d8f81613d4c565b946020939093013593505050565b600080600060608486031215613db257600080fd5b8335613dbd81613d4c565b92506020840135613dcd81613d4c565b929592945050506040919091013590565b600060208284031215613df057600080fd5b8135610d9381613d4c565b60008060208385031215613e0e57600080fd5b82356001600160401b0380821115613e2557600080fd5b818501915085601f830112613e3957600080fd5b813581811115613e4857600080fd5b8660208260061b8501011115613e5d57600080fd5b60209290920196919550909350505050565b60006101e08284031215613e8257600080fd5b50919050565b600060208284031215613e9a57600080fd5b81356001600160401b03811115613eb057600080fd5b61228b84828501613e6f565b60008083601f840112613ece57600080fd5b5081356001600160401b03811115613ee557600080fd5b6020830191508360208260051b8501011115613bc457600080fd5b60008060208385031215613f1357600080fd5b82356001600160401b03811115613f2957600080fd5b613f3585828601613ebc565b90969095509350505050565b600080600060408486031215613f5657600080fd5b83356001600160401b03811115613f6c57600080fd5b613f7886828701613ebc565b9094509250506020840135613f8c81613d4c565b809150509250925092565b600081518084526020808501945080840160005b83811015613fc757815187529582019590820190600101613fab565b509495945050505050565b602081526000610d936020830184613f97565b60008060208385031215613ff857600080fd5b82356001600160401b038082111561400f57600080fd5b818501915085601f83011261402357600080fd5b81358181111561403257600080fd5b866020828501011115613e5d57600080fd5b8015158114610e6b57600080fd5b8035613d6c81614044565b6000806040838503121561407057600080fd5b823561407b81613d4c565b9150602083013561408b81614044565b809150509250929050565b838152600060206060818401526140b06060840186613cf4565b83810360408581019190915285518083528387019284019060005b818110156140f957845180516001600160a01b031684528601518684015293850193918301916001016140cb565b50909998505050505050505050565b6000806040838503121561411b57600080fd5b50508035926020909101359150565b634e487b7160e01b600052604160045260246000fd5b604051608081016001600160401b03811182821017156141625761416261412a565b60405290565b60405161014081016001600160401b03811182821017156141625761416261412a565b60405161012081016001600160401b03811182821017156141625761416261412a565b60405161016081016001600160401b03811182821017156141625761416261412a565b604051601f8201601f191681016001600160401b03811182821017156141f9576141f961412a565b604052919050565b60006001600160401b0382111561421a5761421a61412a565b50601f01601f191660200190565b600061423b61423684614201565b6141d1565b905082815283838301111561424f57600080fd5b828260208301376000602084830101529392505050565b6000806000806080858703121561427c57600080fd5b843561428781613d4c565b9350602085013561429781613d4c565b92506040850135915060608501356001600160401b038111156142b957600080fd5b8501601f810187136142ca57600080fd5b6142d987823560208401614228565b91505092959194509250565b600082601f8301126142f657600080fd5b610d9383833560208501614228565b60006001600160401b0382111561431e5761431e61412a565b5060051b60200190565b803569ffffffffffffffffffff81168114613d6c57600080fd5b803565ffffffffffff81168114613d6c57600080fd5b803564ffffffffff81168114613d6c57600080fd5b803561ffff81168114613d6c57600080fd5b6000608080838503121561439257600080fd5b61439a614140565b915082356001600160401b038111156143b257600080fd5b8301601f810185136143c357600080fd5b803560206143d361423683614305565b82815261014092830284018201928282019190898511156143f357600080fd5b948301945b848610156144c25780868b0312156144105760008081fd5b614418614168565b61442187614328565b815261442e858801614342565b85820152604061443f818901614358565b90820152606061445088820161436d565b9082015261445f87890161436d565b8882015260a0614470818901613d61565b9082015260c0878101359082015260e061448b818901614052565b9082015261010061449d888201614052565b908201526101206144af888201614052565b90820152835294850194918301916143f8565b508652508581013590850152505050604080830135908201526144e760608301613d61565b606082015292915050565b60006060828403121561450457600080fd5b604051606081018181106001600160401b03821117156145265761452661412a565b604052905080823561453781614044565b8152602083013561454781614044565b6020820152604083013561455a81614044565b6040919091015292915050565b60008060008060008060008060008060006101a08c8e03121561458957600080fd5b8b359a5061459960208d01613d61565b99506001600160401b038060408e013511156145b457600080fd5b6145c48e60408f01358f016142e5565b99508060608e013511156145d757600080fd5b6145e78e60608f01358f016142e5565b98506145f560808e01613d61565b97508060a08e0135111561460857600080fd5b6146188e60a08f01358f016142e5565b965061462660c08e01613d61565b95508060e08e0135111561463957600080fd5b6146498e60e08f01358f016142e5565b9450806101008e0135111561465d57600080fd5b5061466f8d6101008e01358e0161437f565b925061467e6101208d01613d61565b915061468e8d6101408e016144f2565b90509295989b509295989b9093969950565b6000602082840312156146b257600080fd5b81356001600160401b038111156146c857600080fd5b82016101a08185031215610d9357600080fd5b6000602082840312156146ed57600080fd5b81356001600160401b0381111561470357600080fd5b82016102008185031215610d9357600080fd5b6000806040838503121561472957600080fd5b823561473481613d4c565b9150602083013561408b81613d4c565b6000806000806040858703121561475a57600080fd5b84356001600160401b038082111561477157600080fd5b818701915087601f83011261478557600080fd5b81358181111561479457600080fd5b886020610140830285010111156147aa57600080fd5b6020928301965094509086013590808211156147c557600080fd5b506147d287828801613ebc565b95989497509550505050565b600181811c908216806147f257607f821691505b602082108103613e8257634e487b7160e01b600052602260045260246000fd5b634e487b7160e01b600052603260045260246000fd5b60006040828403121561483a57600080fd5b604051604081018181106001600160401b038211171561485c5761485c61412a565b604052823581526020928301359281019290925250919050565b8051613d6c81614044565b60006020828403121561489357600080fd5b8151610d9381614044565b6000808335601e198436030181126148b557600080fd5b8301803591506001600160401b038211156148cf57600080fd5b602001915036819003821315613bc457600080fd5b600080858511156148f457600080fd5b8386111561490157600080fd5b5050820193919092039150565b6001600160e01b031981358181169160048510156149365780818660040360031b1b83161692505b505092915050565b60008060006060848603121561495357600080fd5b8335925060208085013561496681613c9d565b925060408501356001600160401b0381111561498157600080fd5b8501601f8101871361499257600080fd5b80356149a061423682614305565b81815260059190911b820183019083810190898311156149bf57600080fd5b928401925b828410156149dd578335825292840192908401906149c4565b80955050505050509250925092565b60008235603e19833603018112614a0257600080fd5b9190910192915050565b6000808335601e19843603018112614a2357600080fd5b8301803591506001600160401b03821115614a3d57600080fd5b6020019150600581901b3603821315613bc457600080fd5b8051613d6c81613d4c565b600060208284031215614a7257600080fd5b8151610d9381613d4c565b84815260606020808301829052908201849052600090859060808401835b87811015614ac25761ffff614aaf8561436d565b1682529282019290820190600101614a9b565b50809350505050821515604083015295945050505050565b600082601f830112614aeb57600080fd5b81516020614afb61423683614305565b82815260059290921b84018101918181019086841115614b1a57600080fd5b8286015b84811015614b355780518352918301918301614b1e565b509695505050505050565b60008060408385031215614b5357600080fd5b82516001600160401b03811115614b6957600080fd5b614b7585828601614ada565b925050602083015190509250929050565b600060208284031215614b9857600080fd5b610d938261436d565b600060208284031215614bb357600080fd5b5051919050565b60208152816020820152818360408301376000818301604090810191909152601f909201601f19160101919050565b8183823760009101908152919050565b634e487b7160e01b600052601160045260246000fd5b818103818111156108b6576108b6614bf9565b808201808211156108b6576108b6614bf9565b60006101208284031215614c4857600080fd5b614c5061418b565b825181526020830151602082015260408301516040820152606083015160608201526080830151608082015260a083015160a082015260c083015160c0820152614c9c60e08401614a55565b60e0820152610100928301519281019290925250919050565b600060208284031215614cc757600080fd5b81516001600160401b03811115614cdd57600080fd5b61228b84828501614ada565b602080825282518282018190526000919060409081850190868401855b82811015614db5578151805169ffffffffffffffffffff1685528681015165ffffffffffff16878601528581015164ffffffffff168686015260608082015161ffff908116918701919091526080808301519091169086015260a0808201516001600160a01b03169086015260c0808201519086015260e08082015115159086015261010080820151151590860152610120908101511515908501526101409093019290850190600101614d06565b5091979650505050505050565b600060208284031215614dd457600080fd5b81516001600160401b03811115614dea57600080fd5b8201601f81018413614dfb57600080fd5b8051614e0961423682614201565b818152856020838501011115614e1e57600080fd5b61355a826020830160208601613cd0565b6020808252810182905260006001600160fb1b03831115614e4f57600080fd5b8260051b80856040850137919091016040019392505050565b614e8582614e7583614328565b69ffffffffffffffffffff169052565b614e9160208201614342565b65ffffffffffff166020830152614eaa60408201614358565b64ffffffffff166040830152614ec26060820161436d565b61ffff166060830152614ed76080820161436d565b61ffff166080830152614eec60a08201613d61565b6001600160a01b031660a083015260c08181013590830152614f1060e08201614052565b151560e0830152610100614f25828201614052565b151590830152610120614f39828201614052565b80151584830152610b2f565b6020808252810182905260008360408301825b85811015614f7e57614f6a8284614e68565b610140928301929190910190600101614f58565b5095945050505050565b6101608101614f978285614e68565b6001600160a01b03929092166101409190910152919050565b6001600160a01b038316815260406020820181905260009061228b90830184613f97565b634e487b7160e01b600052601260045260246000fd5b60008351614ffc818460208801613cd0565b835190830190615010818360208801613cd0565b01949350505050565b600181815b8085111561505457816000190482111561503a5761503a614bf9565b8085161561504757918102915b93841c939080029061501e565b509250929050565b60008261506b575060016108b6565b81615078575060006108b6565b816001811461508e5760028114615098576150b4565b60019150506108b6565b60ff8411156150a9576150a9614bf9565b50506001821b6108b6565b5060208310610133831016604e8410600b84101617156150d7575081810a6108b6565b6150e18383615019565b80600019048211156150f5576150f5614bf9565b029392505050565b6000610d93838361505c565b600080600080600080600060e0888a03121561512457600080fd5b873596506020808901359650604089013561513e81613c9d565b9550606089013561514e81614044565b9450608089013561515e81614044565b935060a089013561516e81614044565b925060c08901356001600160401b0381111561518957600080fd5b8901601f81018b1361519a57600080fd5b80356151a861423682614305565b81815260059190911b8201830190838101908d8311156151c757600080fd5b928401925b828410156151ec576151dd8461436d565b825292840192908401906151cc565b809550505050505092959891949750929550565b6000610160828403121561521357600080fd5b61521b6141ae565b825181526020830151602082015260408301516040820152606083015160608201526080830151608082015260a083015160a082015260c083015160c082015261526760e08401614a55565b60e08201526101008381015190820152610120615285818501614876565b90820152610140615297848201614876565b908201529392505050565b6000826152b1576152b1614fd4565b500490565b6001600160a01b03858116825284166020820152604081018390526080606082018190526000906152e990830184613cf4565b9695505050505050565b60006020828403121561530557600080fd5b8151610d9381613c9d565b601f8211156109fc57600081815260208120601f850160051c810160208610156153375750805b601f850160051c820191505b818110156120f357828155600101615343565b81516001600160401b0381111561536f5761536f61412a565b6153838161537d84546147de565b84615310565b602080601f8311600181146153b857600084156153a05750858301515b600019600386901b1c1916600185901b1785556120f3565b600085815260208120601f198616915b828110156153e7578886015182559484019460019091019084016153c8565b50858210156154055787850151600019600388901b60f8161c191681555b5050505050600190811b01905550565b60008261542457615424614fd4565b500690565b6000606082018583526020606081850152818651808452608086019150828801935060005b8181101561546e57845161ffff168352938301939183019160010161544e565b50508093505050508215156040830152949350505050565b60008060006060848603121561549b57600080fd5b835192506020840151915060408401519050925092509256fe31323334353637383941424344454647484a4b4c4d4e505152535455565758595a6162636465666768696a6b6d6e6f707172737475767778797aa26469706673582212209d77f68f3e2423982f6e6dd710d381c6f46de1afa10af7ebad5926279316867264736f6c63430008110033",
    "linkReferences": {}
  },
  "methodIdentifiers": {
    "adjustTiers((uint80,uint48,uint40,uint16,uint16,address,bytes32,bool,bool,bool)[],uint256[])": "f5a38e63",
    "approve(address,uint256)": "095ea7b3",
    "balanceOf(address)": "70a08231",
    "codeOrigin()": "1d153ca4",
    "contractURI()": "e8a3d485",
    "creditsOf(address)": "245a45b5",
    "delegate(address)": "5c19a95c",
    "delegates(address)": "587cde1e",
    "didPay((address,uint256,uint256,(address,uint256,uint256,uint256),(address,uint256,uint256,uint256),uint256,address,bool,string,bytes))": "da9ee8b7",
    "didRedeem((address,uint256,uint256,uint256,(address,uint256,uint256,uint256),(address,uint256,uint256,uint256),address,string,bytes))": "2b13c58f",
    "directory()": "c41c2f24",
    "firstOwnerOf(uint256)": "54c6d1f5",
    "fundingCycleStore()": "557e7155",
    "getApproved(uint256)": "081812fc",
    "getPastTotalSupply(uint256)": "8e539e8c",
    "getPastVotes(address,uint256)": "3a46b1a8",
    "getVotes(address)": "9ab24eb0",
    "initialize(uint256,address,string,string,address,string,address,string,((uint80,uint48,uint40,uint16,uint16,address,bytes32,bool,bool,bool)[],uint256,uint256,address),address,(bool,bool,bool))": "bb52b6e4",
    "isApprovedForAll(address,address)": "e985e9c5",
    "mintFor((uint16[],address)[])": "36c1a93b",
    "mintFor(uint16[],address)": "6ac6d941",
    "mintReservesFor((uint256,uint256)[])": "2a596e53",
    "mintReservesFor(uint256,uint256)": "aa4fb15b",
    "name()": "06fdde03",
    "owner()": "8da5cb5b",
    "ownerOf(uint256)": "6352211e",
    "payParams((address,address,(address,uint256,uint256,uint256),uint256,uint256,address,uint256,uint256,string,bytes))": "d46cf171",
    "prices()": "d3419bf3",
    "pricingCurrency()": "64640c1e",
    "pricingDecimals()": "4ecba625",
    "projectId()": "3fafa127",
    "redeemParams((address,address,uint256,uint256,uint256,uint256,uint256,(address,uint256,uint256,uint256),bool,uint256,string,bytes))": "a51cfd18",
    "renounceOwnership()": "715018a6",
    "safeTransferFrom(address,address,uint256)": "42842e0e",
    "safeTransferFrom(address,address,uint256,bytes)": "b88d4fde",
    "setApprovalForAll(address,bool)": "a22cb465",
    "setBaseUri(string)": "a0bcfc7f",
    "setContractUri(string)": "ccb4807b",
    "setDefaultReservedTokenBeneficiary(address)": "df487e26",
    "setTokenUriResolver(address)": "2407497e",
    "store()": "975057e7",
    "supportsInterface(bytes4)": "01ffc9a7",
    "symbol()": "95d89b41",
    "tokenURI(uint256)": "c87b56dd",
    "transferFrom(address,address,uint256)": "23b872dd",
    "transferOwnership(address)": "f2fde38b"
  },
  "id": 0
}